:02000004080AE8
:1000000000000A08541C0A0800000500060005014B
:080010000402EA0300000000F5
:10001800C8180A0809480A4908B5884205D0094A93
:10002800824202D0121A01F0EBFB0748074A00216E
:10003800121A01F0F0FB064808BD00BF00030020BB
:10004800B41B0A0878030020780300200C0900205C
:100058000C09002070B500F043FD074B074C1E4605
:10006800E41AA4080025A54204D056F8253098477C
:100078000135F8E770BD00BF7C1B0A08AC1B0A08F5
:1000880000F02AB808B500F033F9BDE8084000F0E0
:10009800E9BC00F0F5BA00F0FBBA0078B0FA80F0DD
:1000A8004009704701230370704738B50468054656
:1000B8007CB16368013B63605BB9236820469B6839
:1000C8009847A368013BA3601BB923682046DB68F7
:1000D8009847284638BD00002DE9F043794D7A4C01
:1000E80089B07A4F2888012101F090F9784E20884C
:1000F800012101F08BF93888002101F087F9308857
:10010800012101F083F93088012101F090F90121E2
:10011800208801F08CF941F2883000F041FC2088F9
:10012800002101F084F90121288801F080F94FF4B9
:10013800FA7000F035FC388801F092F98046C82042
:1001480000F02EFC388801F08BF905464FF49670C4
:1001580000F026FC0121208801F069F94FF4FA70BB
:1001680000F01EFC0021208801F061F94FF4FA70BC
:1001780000F016FC0121208801F059F94FF4FA70BB
:1001880000F00EFC0021208801F051F94FF4FA70BC
:1001980000F006FC0121208801F049F940F6B8304A
:1001A80000F0FEFB0021208801F041F9388801F0B9
:1001B80057F98146C82000F0F3FB388801F050F960
:1001C80006464FF47A7000F0EBFB0121208801F01D
:1001D8002EF94FF4FA7000F0E3FB0021208801F0BB
:1001E80026F94FF4FA7000F0DBFB0121208801F0BA
:1001F8001EF94FF4FA7000F0D3FB0021208801F0BB
:1002080016F94FF4FA7000F0CBFB0121208801F0B9
:100218000EF94FF4FA7000F0C3FB2088002101F0BA
:1002280006F94544022309EB060191FBF3F195FB1E
:10023800F3F0284E284D3060084490FBF3F0274A2D
:10024800274C116028600A2204A800F028FB2378B4
:10025800049A24498DF8003002A83C2300F08AFD56
:1002680003A8FFF722FF04A800F0C1FA31680A22A8
:1002780004A800F014FB2378049A1B498DF8003079
:1002880002A83C2300F076FD03A8FFF70EFF04A8A0
:1002980000F0ADFA29680A2204A800F000FB2378D0
:1002A800049A12498DF8003002A83C2300F062FD40
:1002B80003A8FFF7FAFE04A800F099FA09B0BDE810
:1002C800F08300BF84030020000300200C030020FB
:1002D800040300208C0300207C03002080030020FE
:1002E80088030020DC180A08E9180A08F6180A0822
:1002F80030B52A4B89B0188801F0B2F8284C054669
:1003080023685A1E2260BBB901460A2204A800F0DD
:10031800C6FA244B049A1B7823498DF8003002A8AA
:100328003C2300F027FD03A8FFF7BFFE04A800F058
:100338005EFA4FF4FA7323601C4B1D4C1B689D42F8
:10034800237814DD43B3174B1A4A1B781A498DF8E2
:10035800003004A83C2300F00DFD05A8FFF7A5FE1A
:10036800164B0021188801F062F8002313E09BB9AE
:100378000C4B134A1B7810498DF8003004A83C2315
:1003880000F0F8FC05A8FFF790FE0C4B0121188837
:1003980001F04DF80123237009B030BD0C03002093
:1003A800080300208803002005190A087C030020A0
:1003B8009003002019190A0820190A0800030020D0
:1003C8002B190A08024B01221A7000F003B800BF6B
:1003D8008803002008B5024B1B681B68019308BD01
:1003E800B001060808B5024B1B685B68019308BD9D
:1003F800B001060808B5024B1B689B68019308BD4D
:10040800B001060808B5024B1B68DB68019308BDFC
:10041800B001060808B5024B1B681B69019308BDAB
:10042800B001060808B5024B1B681B6B019308BD99
:10043800B001060808B5024B1B68DB69019308BDCB
:10044800B401060808B5024B1B681B6A019308BD76
:10045800B401060808B5024B1B685B68019308BD28
:100468009C01060808B5024B1B685B69019308BD2F
:100478009C01060808B5024B1B68DB6E019308BD9A
:10048800B801060808B5024B1B681B6B019308BD31
:10049800D001060808B5024B1B689B69019308BD8B
:1004A800C401060808B5024B1B685B6A019308BDC6
:1004B800C401060808B5024B1B689B6A019308BD76
:1004C800C401060808B5024B1B68DB6A019308BD26
:1004D800C401060808B5024B1B681B6B019308BDD5
:1004E800C401060808B5024B1B685B6B019308BD85
:1004F800C401060808B5024B1B689B6B019308BD35
:10050800C401060808B5024B1B681B6C019308BDA3
:10051800C401060808B5024B1B681B6E019308BD91
:10052800AC01060808B5024B1B685B6E019308BD59
:10053800AC01060808B5024B1B689B6E019308BD09
:10054800AC01060808B5024B1B68DB6E019308BDB9
:10055800AC01060808B5024B1B681B6F019308BD68
:10056800AC01060808B5024B1B685B6F019308BD18
:10057800AC01060808B5034B1B68D3F8803001931B
:1005880008BD0000AC01060808B5024B1B681B68D3
:10059800019308BDD801060808B5024B1B681B6902
:1005A800019308BDD801060808B5024B1B685B69B2
:1005B800019308BDD801060808B5024B1B689B6962
:1005C800019308BDD801060808B5024B1B68DB6912
:1005D800019308BDD801060808B5024B1B681B6AC1
:1005E800019308BDD801060808B5024B1B685B6873
:1005F800019308BDA401060808B5024B1B685B6996
:10060800019308BDA401060808B5024B1B68DB6C02
:10061800019308BDA401060808B5024B1B685B6D71
:10062800019308BDA401060808B5034B1B68D3F85D
:100638009030019308BD0000A401060808B5034BDB
:100648001B68D3F89C30019308BD0000A40106087C
:1006580008B5024B1B681B69019308BDC801060851
:1006680008B5024B1B681B6A019308BDCC0106083C
:1006780008B5024B1B68DB6B019308BDCC0106086B
:1006880008B5024B1B681B68019308BDA00106084A
:1006980008B5024B1B685B68019308BDA0010608FA
:1006A80008B5024B1B689B68019308BDA0010608AA
:1006B80008B5024B1B68DB6A019308BDA001060858
:1006C80008B5024B1B681B6B019308BDA001060807
:1006D800704710B50446FFF7DEFC204610BD000049
:1006E80070B504460E46074B0025036040F80C5FC2
:1006F800FFF7C8FE30462671FFF79CFEA56020462E
:1007080070BD00BF3C190A080079FFF79BBE0000C6
:100718004FF69C7337B50D4C002563804FF6FF7379
:100728002846A3802570FFF75FFF02A840F8045D04
:100738002A462946FFF79EFE019B1E2B04D1032360
:10074800237011236580A38003B030BD920300207D
:1007580010B5044601F0ABF801382318204698423A
:1007680006D20278197800F8011B03F80129F6E788
:1007780010BD70B50C46911E222920D82546294661
:1007880010B9234430220EE0B0FBF2F602FB16004B
:10079800C1B2092805F8011B94BF3031573105F85B
:1007A800011C3046EBE7994202D201F8012BFAE727
:1007B800002320460B70FFF7CBFF204670BD0020BA
:1007C80070BD38B5031E0C4615460BDAB3F1004F61
:1007D8004FF02D0214BF5842184601230A702A46CA
:1007E800194400E00123FFF7C4FF204638BD10B5C7
:1007F80004460068FFF74CFF204610BD10B50446BC
:10080800006808B1FFF744FF00232360A36063601A
:1008180010BD38B504460D4600680131FFF740FFAA
:1008280010B184E82100012038BD10B503680446E2
:1008380013B143688B4207D22046FFF7EAFF20B185
:10084800A3680BB922681370012010BD70B50E465D
:10085800114604461546FFF7E8FF18B92046FFF78A
:10086800CDFF09E02A463146A560206800F0C8FFA0
:100878002268A3680021D154204670BD38B50546CA
:100888000C4641B1084601F012F8214602462846B6
:10089800FFF7DCFF01E0FFF7B1FF284638BD10B5D0
:1008A800044600238AB023606360A360237308466C
:1008B80001A9FFF786FF01A92046FFF7DFFF2046C1
:1008C8000AB010BDF8B506460D468F180024BD4283
:1008D8000CD0336815F8011B9B68304698470028F0
:1008E80001DB0444F3E7002C08BF04462046F8BDAA
:1008F80070B505460C46084649B100F0D8FF2B688C
:10090800024621462846BDE87040DB68184770BD9E
:1009180003689B681847012A98BF0A2230B50B461E
:100928008BB000218DF824100DF12304B3FBF2F5F0
:1009380005FB1233DBB2092B94BF30333733DBB2FC
:10094800214604F801392B46002DEFD1FFF7D0FFDF
:100958000BB030BD10B422B90368C9B29B6810BC93
:100968001847D2B210BCFFF7D6BFFFF7F3BF0B682A
:10097800036013B15A6801325A607047014A024B4A
:100988001A607047FF190A0898030020024B1A687A
:10099800024B1A60704700BF100300209C03002020
:1009A8000021FFF729BE10B58368044613B103225E
:1009B80001469847204610BD10B50446FFF7F3FFDF
:1009C800204610BD13B50B46044603C88DE8030046
:1009D80093E8030084E803009DE8030083E803002C
:1009E80002B010BD034800238360034A034900F0A6
:1009F800A9BD00BFA003002078030020C1090A0890
:100A080008B5144B33B100F0A7FB03681B6998477E
:100A1800002816DC104B33B100F044FC03681B6956
:100A28009847002810DC0D4B0BB1AFF300800C4B3E
:100A38007BB100F0CDFB03681B699847002806DCF2
:100A480008BDAFF30080E5E7AFF30080EBE7AFF355
:100A5800008008BD00000000000000000000000049
:100A68000000000008B5FFF7CBFFFFF7FBFC014BC8
:100A7800186008BD380800200248034A0349121AC2
:100A880000F0BEBE0040024004400240B01B0A080D
:100A980007B5002300931A466FF07701FFF7CEFDE4
:100AA80003B05DF804FB000007B543880A2B08D0A3
:100AB800502B09D1094B1B683BB103B05DF804EB1F
:100AC8001847FFF7E5FF06E0002300931A466FF08A
:100AD8007701FFF7B3FD03B05DF804FBB003002016
:100AE80038B5104C104D2368AB42104B0CBF012297
:100AF80000221A7002D0FFF7BFFF2560FFF7AAFC9B
:100B080000F092FE0A4B1BB1FFF7A4FCAFF3008084
:100B180000210748FFF7ACFDBDE838400021054833
:100B2800FFF782BD004002401E1C279AB403002034
:100B380000000000B10A0A0870470020704710B58D
:100B48000446FFF7A8FA204610BD08B508B1FFF71C
:100B5800F6FF08BD38B5C468D4B12378022B02D19A
:100B6800E068FFF795FD65682DB12846FFF71BFF84
:100B78002846FFF790FAA5682DB12846FFF713FF1E
:100B88002846FFF788FA2046BDE83840FFF783BAC1
:100B980038BD13B5044691E8050000234B600B608F
:100BA8002060626001A801930093FFF77EFA204657
:100BB80002B010BDF7B50C4606460F4654F8043B84
:100BC80002AD45F8083D214601A8FFF7D0FE2946A9
:100BD8003046FFF7DEFF01A8FFF767FA2046FFF768
:100BE80064FA3846FFF757FA304603B0F0BD82681A
:100BF80010B50AB900F0ABFCC368BDE8104018474F
:100C080008B5006800F11001FFF7F1FF08BD826820
:100C180010B50AB900F09BFCC368BDE8104018473E
:100C280008B5006800F11001FFF7F1FF08BD38B5FD
:100C3800002383608B6804460D462BB10222984737
:100C4800EB68E360AB68A360204638BD2DE9F0414E
:100C58004FF69C7304684FF0020086B0B1F9042087
:100C68008B8000230F688DF800300B60D4E84F1F8D
:100C7800994203D1C4E8450F002DF7D102D08DF871
:100C880000106BE014F10C051CBFE7602282BFF373
:100C98005F8F18BF1F4601236370BFF35F8F04F196
:100CA8000803002053E8006F43E80002002AF9D146
:100CB800BFF35F8F002E51D0FFF7A6FC20B1294665
:100CC8003046FFF794FF43E031466846FFF7AFFF31
:100CD800E068B4F9105008B100F0CEFD049010207F
:100CE800ADF81450FFF7D5F9054630B34FF00008BA
:100CF800C0F808801820FFF7CCF90446C0B1C0F846
:100D0800088001466846FFF75DFE029BA268A36063
:100D1800039B0292E268E360BDF814300392A38259
:100D28004FF69C73ADF81430049BCDF81080236106
:100D38000D4B2C60EB600D4BAB600498FFF7A8FCE3
:100D48006846FFF730FE002229460948FFF764FC91
:100D58003046FFF728FE3046FFF79DF93846FFF783
:100D680097FC06B0BDE8F081090C0A08650E0A0870
:100D7800F9120A082DE9F04F8BB007AD4FF0000BC0
:100D88000646994614200C230F4690469DF850A01D
:100D9800C5F804B0C5F808B00793FFF77AF9044618
:100DA80038B180F800B080F801B0C0F804B0C0F8DD
:100DB80008B00023102003940493FFF76AF928B1C0
:100DC800012343608360234BC4600360224B04907B
:100DD80008200893FFF75DF9044628B1039B04A98E
:100DE80040F8043BFFF7C3FD00955FFA8AF34A46D3
:100DF800414638460994FFF733FCB8B9039B5B7842
:100E080003F0FF0293B94FF69C7305A903A8059256
:100E1800ADF81830FFF71AFF0598FFF739FC05A859
:100E28000999FFF7C7FE06A8FFF73FF9039B04A936
:100E380006A80593FFF79BFD05A93046FFF7A9FE15
:100E480006A8FFF732F904A8FFF72FF930460BB0D0
:100E5800BDE8F08F5C1A0A08CD0F0A08022AF8B517
:100E6800044606D0032A17D0012A20D10B68036054
:100E78001DE018200E68FFF70CF9054650B1314601
:100E8800FFF7D5FE3069B6F9147008B100F0F4FC2C
:100E98002861AF8225600AE0046844B12069FFF741
:100EA800F7FB2046FFF77FFD2046FFF7F4F8002008
:100EB800F8BD38B5002383608B6804460D462BB116
:100EC80002229847EB68E360AB68A360204638BD10
:100ED800022A70B5044606D0032A11D0012A17D178
:100EE8000B68036014E014200E68FFF7D2F805467B
:100EF80020B13146FFF7DDFF337C2B74256007E016
:100F080004682CB12046FFF74EFD2046FFF7C3F8D2
:100F1800002070BDF0B50C46BFF35F8F87B000238B
:100F280050E8006F40E80032002AF9D1BFF35F8F24
:100F3800002E3ED01846FFF767FB074620B1214632
:100F48003046FFF764FE2EE0314601A8FFF7B1FFF7
:100F5800237810208DF81430FFF79BF80546D0B1A0
:100F680087601420FFF795F8044678B1876001463A
:100F780001A8FFF727FD039BA268A360049B0392C7
:100F8800E268E3609DF81430049223740A4B2C60E5
:100F9800EB600A4BAB6001A8FFF705FD002229466C
:100FA8000748FFF739FB3046FFF7FDFC3046FFF7EF
:100FB80072F807B0F0BD00BF290C0A08D90E0A085C
:100FC800F9120A0830B5044685B00D466846114640
:100FD800FFF7F0FD7CB124B228460DB100F04CFCBF
:100FE800029002A96846ADF80C40FFF72FFE029860
:100FF800FFF74EFB1DE04FF0010200988DF8084006
:10100800D0E84F3FA34203D1C0E8412F0029F7D1D0
:1010180002D08DF808300CE010F10C014FF00103FC
:1010280018BF0373BFF35F8F043000F8033CFFF76A
:1010380071FF01A8FFF739F805B030BD704710B54A
:101048000446FFF728F8204610BDF8B50F4600F112
:101058000806051D002416F8011D0A223846FFF768
:1010680084FCAE42044407D0002CF4D02E2138462C
:10107800FFF74EFC0444EEE72046F8BD10B59DF896
:10108800084044EA032343EA024242EA0161042396
:101098004160037510BD000037B5044D05609DF82B
:1010A80018500095FFF7EAFF03B030BD781A0A0818
:1010B8004174704770470021007CFFF77DBA012119
:1010C800007CFFF779BA007CFFF76EBA007CFFF767
:1010D80063BA38B50446007C0D46FFF765FA002868
:1010E80001DC607C20B12946207CFFF76DFA0120E5
:1010F80038BD007CFFF770BA10B50446FEF7CBFF89
:10110800204610BD10B50446002363604FF47A737F
:10111800A360054B084623600123217463741146BC
:10112800FFF732FA204610BD8C1A0A0810B504469B
:101138001422002100F06FFB054B20466360054B2D
:10114800E36040F2011323818123238210BD00BF95
:101158003D040020BC03002030B50E4D87B001A827
:10116800FFF7E4FF296811F0010410D12846FEF7C3
:1011780094FF60B101AA21460748FFF7C3FF28463C
:10118800FEF790FF054A0649034800F0DBF90248DC
:1011980007B030BDB80300204005002078030020C8
:1011A800BD100A0810B504461422002100F033FBD4
:1011B800054B20466360054BE36040F20113238131
:1011C8008123238210BD00BFF005002058050020B0
:1011D80010B50E4C86B001A8FFF7E4FF2368DB07C3
:1011E80010D42046FEF759FF60B101AA0121084832
:1011F800FFF788FF2046FEF755FF064A06490448D0
:1012080000F0A0F9024806B010BD00BF5405002048
:10121800DC05002078030020BD100A0870474174DF
:101228007047007CFFF76EB9007CFFF743B9007C7C
:10123800FFF750B9007CFFF745B9007CFFF752B9BA
:1012480010B50446FEF727FF204610BD70B5457C53
:1012580004460E4625B9007CFFF754F9002805DD41
:101268003146207CBDE87040FFF71CB9284670BDA8
:1012780010B5044608461146002262604FF47A729F
:10128800A260054A20742260012262741A46FFF7A0
:1012980001F9204610BD00BFBC1A0A08007CFFF700
:1012A80029B9000038B50C4D296811F0010411D195
:1012B8002846FEF7F2FE68B1084A2146084B09485D
:1012C800FFF7D6FF2846FEF7EDFE074A074905480F
:1012D80000F038F9034838BD8C070020900700203B
:1012E80008070020F40600207803002025120A08C9
:1012F80010B5836804460BB900F029F9C36898470C
:10130800A3681BB103222146204698472046BDE822
:101318001040FEF7C0BE7047F8B5064615460C46A5
:101328008F18BC4206D0336814F8011B9B683046FE
:101338009847F6E72846F8BD0022007CFFF7EAB890
:101348000021007CFFF7EEB80021007CFFF7F2B81F
:101358000021007CFFF7F6B80021007CFFF7FAB8FF
:1013680010B50446FEF797FE204610BD10B504469A
:1013780008464FF47A73A360044B0021207461601F
:101388002360FFF7F7F8204610BD00BFEC1A0A08E3
:101398000021007CFFF7E6B870470022114610468E
:1013A800FFF756B90348044B044A0549036000F0A7
:1013B800C9B800BF14080020141B0A0878030020CD
:1013C800A1130A0810B504460F48FFF79DF928B184
:1013D800A4F10D03022B01D8002010BD00F092F8F3
:1013E800FFF7D6FF08B1012CF6D9FFF75BFFFFF72F
:1013F80055FF18B1A4F11203012BEDD9172C8CBF9E
:101408000020012010BD00BF18080020172838B59B
:1014180004460D460AD8FF2908D0FFF7D3FF28B1A4
:1014280029462046BDE83840FEF7E4BF38BD38B548
:1014380004460D46FEF7E6FFFF2810D0062804D81C
:101448004D2323FA00F0C30709D42046FFF7BAFF5B
:1014580028B129462046BDE83840FEF7DBBF38BD35
:1014680010B5044609289CBF0A34A4B22046FFF7E9
:10147800A9FF50B103212046FEF7B4FF032804D189
:101488002046BDE81040FEF7CDBF002010BD00008B
:1014980070B50C4C0C4E0D4D00212046FFF720F97D
:1014A80020460B4C3246294600F04CF801212046D4
:1014B800FFF716F9324629462046BDE8704000F08D
:1014C80041B800BF1808002078030020D9060A0890
:1014D8002808002013B5084C00231A461946009323
:1014E8002046FFF7D9FD2046044A054902B0BDE869
:1014F800104000F027B800BF3C0800207803002007
:1015080045100A0838B50B4D296811F001040FD1B0
:101518002846FEF7C2FD58B121460748FFF726FFC7
:101528002846FEF7BFFD054A0549034800F00AF8BA
:10153800014838BD540800205808002078030020CE
:101548001F130A080B460146184600F04BB908B5A8
:10155800FFF7AEF8184B1A68D1075CBF01221A6072
:10156800164B1A68D2075CBF01221A60144B1A681E
:10157800D0075CBF01221A60124B1A68D1075CBF02
:1015880001221A60104B1A68D2075CBF01221A6048
:101598000E4B1A68D0075CBF01221A600C4B1A6800
:1015A800D1075CBF01221A600A4B1A68D2075CBFD8
:1015B80001221A60704700BF8808002084080020B4
:1015C800800800207C08002078080020740800208B
:1015D800700800206C080020244B1A68D0075CBFF4
:1015E80001221A60224B1A68D1075CBF01221A60D7
:1015F800204B1A68D2075CBF01221A601E4B1A687A
:10160800D0075CBF01221A601C4B1A68D1075CBF67
:1016180001221A601A4B1A68D2075CBF01221A60AD
:10162800184B1A68D0075CBF01221A60164B1A685B
:10163800D1075CBF01221A60144B1A68D2075CBF3D
:1016480001221A60124B1A68D0075CBF01221A6087
:10165800104B1A68D1075CBF01221A600E4B1A683A
:10166800D2075CBF01221A60704700BFB80800208B
:10167800B4080020B0080020AC080020A80800200A
:10168800A4080020A00800209C080020980800203A
:1016980094080020900800208C080020244B1A6829
:1016A800D0075CBF01221A60224B1A68D1075CBFC1
:1016B80001221A60204B1A68D2075CBF01221A6007
:1016C8001E4B1A68D0075CBF01221A601C4B1A68AF
:1016D800D1075CBF01221A601A4B1A68D2075CBF97
:1016E80001221A60184B1A68D0075CBF01221A60E1
:1016F800164B1A68D1075CBF01221A60144B1A688E
:10170800D2075CBF01221A60124B1A68D0075CBF6F
:1017180001221A60104B1A68D1075CBF01221A60B7
:101728000E4B1A68D2075CBF01221A60704700BFCF
:10173800E8080020E4080020E0080020DC08002079
:10174800D8080020D4080020D0080020CC080020A9
:10175800C8080020C4080020C0080020BC080020D9
:10176800184B1A68D1075CBF01221A60164B1A6819
:10177800D2075CBF01221A60144B1A68D0075CBFFD
:1017880001221A60124B1A68D1075CBF01221A6045
:10179800104B1A68D2075CBF01221A600E4B1A68F8
:1017A800D0075CBF01221A600C4B1A68D1075CBFD6
:1017B80001221A600A4B1A68D2075CBF01221A601C
:1017C800704700BF08090020040900200009002014
:1017D800FC080020F8080020F4080020F008002089
:1017E800EC08002010B5054C13462CB10A460146FA
:1017F8000220AFF3008010BD204610BD000000009D
:1018080010B5431E0A44914204D011F8014B03F865
:10181800014FF8E710BD03460244934202D003F893
:10182800011BFAE77047000038B5124B05461C68E3
:10183800A36BD3B91820FEF723FF43F20E33A0633E
:1018480003804AF6CD33438041F2342383804EF23D
:101858006D63C3804DF6EC630381052343810B233D
:10186800838101220023C0E90423A36B00221D61A8
:101878005A6138BD74030020024B0146186800F015
:1018880003B800BF7403002070B5064608460C462E
:1018980000F00DF8451C29463046FEF711FF0646B4
:1018A80018B12A462146FFF7ABFF304670BD034604
:1018B80013F8012B002AFBD1181A013870470000D1
:1018C8001D000A085D000A0889000A088D000A0838
:1018D80000000000496E746163742056616C756580
:1018E8000042726F6B656E2056616C7565004265CB
:1018F800616D205468726573686F6C640050686F1E
:10190800746F7265736973746F722056616C756554
:1019180000696E74616374006265616D537461740B
:1019280075730062726F6B656E0000000000000046
:1019380000000000D9060A08DB060A0866006C6E7B
:1019480000666E00636F64650064657461696C00AD
:101958000D0A00253031307520005D200025640017
:101968002C200028293A2000205B00636F64652042
:101978003D200025690064657461696C73203D2011
:1019880000626175640053657269616C0055534269
:1019980053657269616C31007479706500706172A9
:1019A800616D00636D6400696400686E640073743F
:1019B800726D0066696C74006C766C0061646448D2
:1019C800616E646C65720072656D6F766548616EF4
:1019D800646C657200656E756D48616E646C6572E5
:1019E80073004A534F4E53747265616D4C6F67486C
:1019F800616E646C657200617070006E6F6E650078
:101A0800747261636500696E666F007761726E005B
:101A18006572726F720070616E696300616C6C0050
:101A28005A00252B3033643A253032750025592D5C
:101A3800256D2D25645425483A254D3A2553257A98
:101A48000061736374696D650000000000000000A8
:101A580000000000410B0A08470B0A085D0B0A0842
:101A6800530B0A08430B0A0800000000000000009E
:101A780053100A0845100A0847100A080000000019
:101A880000000000BD100A0801110A08DB100A084E
:101A9800CD080A08D5100A08BF100A08C7100A0896
:101AA800FB100A08CF100A08B9100A080000000045
:101AB8000000000025120A0849120A0855120A08EF
:101AC800CD080A0831120A083D120A0837120A0816
:101AD80043120A0827120A082B120A0800000000FD
:101AE800000000001F130A0869130A0841130A08B6
:101AF80021130A0849130A0851130A0859130A0836
:101B080061130A080000000000000000A3130A087F
:101B180000000000000000000000000000000000BD
:101B280000000000000000000000000000000000AD
:101B3800000000000000000000000000000000009D
:101B4800000000000000000000000000000000008D
:101B5800000000000000000000000000000000007D
:101B6800000000000000000000000000000000006D
:101B780043000000CD030A0819070A0885090A0866
:101B880095090A08ED090A08AD130A0899140A0804
:101B9800DD140A085D150A08E1150A08A5160A08E1
:081BA80069170A0800000000A3
:041BB0000000000031
:101BB400070000000F000000F40100000A0000000C
:101BC400491A0A0800000000181B0A08381B0A08F2
:101BD400581B0A080000000000000000000000007C
:101BE40000000000781B0A0800000000000000004C
:101BF40000000000000000000000000000000000E1
:101C040000000000000000000000000000000000D0
:101C140000000000000000000000000000000000C0
:081C2400000000001403002081
:101C2C00FFFFFFFF00000102030405060708090A75
:101C3C000B0C0D0E0F101112131415161718191A70
:081C4C001B1C1D1E1F202800B7
:041C54007856341278
:04000005080A0018CD
:00000001FF
